S01800005363686C656966656E746573745F30312E73726563FB
S11300000C942A000C9434000C9434000C943400A6
S11300100C9434000C9434000C9434000C9434008C
S11300200C9434000C9434000C9434000C9434007C
S11300300C9434000C9434000C9434000C9434006C
S11300400C9434000C9434000C9434000C9434005C
S11300500C94340011241FBECFE5D4E0DEBFCDBF25
S11300600E9436000C9440000C9400008FEF84BB77
S113007015BA80E002C085BB8F5F8930E0F3F9CF09
S1070080F894FFCF1E
S9030000FC
