:100000000C942A000C9434000C9434000C943400AA
:100010000C9434000C9434000C9434000C94340090
:100020000C9434000C9434000C9434000C94340080
:100030000C9434000C9434000C9434000C94340070
:100040000C9434000C9434000C9434000C94340060
:100050000C94340011241FBECFE5D4E0DEBFCDBF29
:100060000E9436000C9444000C94000015BA85B32D
:100070008F5F85BB2FE78FE492E121508040904055
:0C008000E1F700C00000F3CFF894FFCFC0
:00000001FF
