:100000000C942A000C9434000C9434000C943400AA
:100010000C9434000C9434000C9434000C94340090
:100020000C9434000C9434000C9434000C94340080
:100030000C9434000C9434000C9434000C94340070
:100040000C9434000C9434000C9434000C94340060
:100050000C94340011241FBECFE5D4E0DEBFCDBF29
:100060000E9436000C9452000C9400001ABA8FE0E3
:100070008BBB8FEF84BB81E085BBC899FECF85B376
:1000800090E0880F991F95B3991F9927991F892B85
:1000900085BBC89BFECF83EC99E00197F1F700C0C8
:0800A0000000EBCFF894FFCF44
:00000001FF
