:100000000C942A000C943C000C943C000C943C0092
:100010000C943C000C943C000C943C000C943C0070
:100020000C943C000C943C000C943C000C943C0060
:100030000C943C000C943C000C943C000C943C0050
:100040000C943C000C943C000C943C000C943C0040
:100050000C943C0011241FBECFE5D4E0DEBFCDBF21
:1000600020E0A0E6B0E001C01D92A236B207E1F7A1
:100070000E9454000C9471000C940000CF93DF9305
:100080001F92CDB7DEB719828EEE8093610088E3B0
:1000900090E029812F5F29832981FC0120830000C2
:1000A0000F90DF91CF910895CF93DF93CDB7DEB757
:1000B00081E0809361000E943E0080916100809306
:1000C0006000809160008E3E31F482E390E021E197
:1000D000FC012083EDCF82E390E02FEFFC01208331
:0600E000E7CFF894FFCF0A
:00000001FF
