:100000000C942A000C9447000C9447000C94470071
:100010000C9447000C9447000C9447000C94470044
:100020000C9447000C9447000C9447000C94470034
:100030000C9447000C9447000C9447000C94470024
:100040000C9447000C9447000C9447000C94470014
:100050000C94470011241FBECFE5D4E0DEBFCDBF16
:1000600010E0A0E6B0E0E8EFF0E002C005900D92ED
:10007000A436B107D9F720E0A4E6B0E001C01D9294
:10008000A636B207E1F70E9449000C947A000C945E
:100090000000CF93DF93CDB7DEB78AE390E020EF87
:1000A000FC0120838BEA8093640081E080936500EB
:1000B0008AE390E02AE330E0F90120812095FC01F9
:1000C0002083809164008095809364008091650016
:1000D000880F809365008091600085958093600013
:1000E00080916100909162000296909362008093EB
:0800F0006100DECFF894FFCFA0
:0400F800F6E8030023
:00000001FF
